:020000040800F2
:10000000180500201D410008CD3F0008CF3F000823
:10001000D13F0008D33F0008D53F00080000000092
:10002000000000000000000000000000D73F0008B2
:10003000D93F000800000000DB3F00089D190008C0
:10004000394100083D41000841410008E51B000816
:100050004541000849410008B13A00084D410008F7
:10006000DF3A0008514100080D3B000855410008E7
:10007000594100085D4100086141000865410008E0
:10008000694100086D410008714100087541000890
:10009000DD3F0008794100087D4100084B3B000826
:1000A0008141000885410008894100088D41000810
:1000B0001B250008914100084325000895410008D0
:1000C000994100089D410008A1410008A541000890
:1000D000A9410008E13F0008F70E0008250F0008BD
:1000E000A93B0008AD4100080D400008B1410008DF
:1000F000B5410008B9410008BD410008C1410008F0
:10010000C5410008C941000809260008CD41000882
:10011000530F0008810F0008D1410008D5410008A5
:10012000D9410008DD410008E1410008E54100082F
:1001300010B5DFF84848002804D101202168088262
:10014000002010BDDFF8380800680068804720688C
:100150000A3010BD80B5DFF824080068C178DFF8E8
:10016000242852780B469A420DD38278002A0AD16D
:100170008288002A07D18172DFF80408006840688D
:100180008047002002BD022002BD10B5DFF8EC4719
:10019000002804D1012021680882002010BDDFF86A
:1001A000E00700688068804720680C3010BD10B5FB
:1001B000DFF8C8472068C1784079DFF8CC2712689B
:1001C0009269904721688A7A002A14D0002812D1B7
:1001D000087900280FD1887800280CD1DFF8A00713
:1001E0000068C068804720684179C1722068C17882
:1001F0000173002010BD022010BD10B5DFF87C1780
:100200000968002803D102200882002010BDDFF811
:100210007C470020208008787F2210421AD1487A3B
:1002200000210246920603D541F00201217000E050
:1002300021702178400609D541F001002070DFF8D7
:100240004007006800698047204610BD01F0FE00AD
:100250002070F4E700F07F02012A01D1204610BD92
:1002600000F07F0002281BD1487900F00F01DFF871
:100270002027000652F8210008D500F03000102891
:10028000DDD1002040F001002070D8E700F440509C
:10029000B0F5805FD3D1002040F001002070CEE7A0
:1002A000002010BDF8B5DFF8D4060068017811F021
:1002B0007F0105D1417A01F0DF0141720020F2BDDA
:1002C00002295AD14188002957D10179002954D1F6
:1002D00041796FF0800202EA0105DFF8B4460A06B0
:1002E00054F8252002D502F0300201E002F4405219
:1002F000DFF890361B789D423FD2002A3DD0807AAD
:1003000000283AD0080654F825000BD500F030003C
:1003100010282BD1284600F0DBFB3021284600F0C6
:1003200067FB23E000F44050B0F5805F1ED148F237
:1003300080064BF68F77002D0DD1DFF8580690F828
:100340002C10002000F01AFC2068384080F4405047
:10035000304320600AE0284600F0A8FB54F825004E
:10036000384080F44050304344F82500DFF8100650
:100370000068406980470020F2BD0220F2BD38B518
:10038000DFF8F805026853796FF080001840DFF855
:1003900000161C0651F8204002D504F0300401E09C
:1003A00004F44054DFF8DC552D78A84207D2558874
:1003B000002D04D1002C02D0927A002A01D1022013
:1003C00032BD48F280021B0651F8203008D548F6AD
:1003D000BF74234083F010031A4341F8202007E044
:1003E0004BF68F74234083F480531A4341F8202046
:1003F000DFF88C05006880698047002032BD80B539
:10040000DFF878050068417A41F020014172DFF899
:1004100070050068C0698047002002BDDFF85C25D8
:100420001268538A002804D18888C01A10820020DC
:100430007047086818447047F8B5DFF840452068F1
:1004400000F110052E88A968080016D0002E14D0DF
:10045000A888864200D9064630468847074628883D
:10046000801B2880688830186880002000F06DFBB1
:1004700032460146384600F0CFFB288800280CD0D1
:100480004FF44050DFF8101508800021084600F0B6
:1004900069FB3020DFF80415088028880146AA8807
:1004A000914203D3032021680872F1BD010003D0FB
:1004B000052021680872F1BD10D10620216808725C
:1004C0000020DFF8DC14096889B2DFF8D82402EBD9
:1004D000410108603020DFF8C4140880F1BD2DE927
:1004E000F041DFF89844206800F110063788002FAB
:1004F0001DD1007A04281AD1DFF8A004DFF8A8146F
:100500000A78012A0FD10022DFF894341B689BB2CD
:10051000DFF8905405EB43031A6030220280042573
:10052000002008702BE007251021018027E0B0880B
:10053000B84201D3042500E00225874200D90746CE
:100540003846B16888478046002000F0F0FA3A4605
:100550000146404600F04CFB3946002000F002FB0B
:100560003088C01B30807088381870803020DFF8E9
:100570002C1408804FF44050DFF81C1408802068C9
:100580000572BDE8F08138B50220DFF8F04321683C
:100590004D780A787F231A422DD1092D02D1FFF719
:1005A000D9FD3CE0052D0FD1C878802808DA88787D
:1005B000002805D18888002802D1887A002801D037
:1005C00008204BE000202AE0032D08D1CA78012A38
:1005D00025D18988002922D1FFF711FF1FE0012DC5
:1005E0001DD1CA78012A1AD18A88002A17D1497ADE
:1005F00089060DD413E002F07F01012904D10B2DEF
:100600000DD1FFF7D4FD0AE0022908D1012D02D156
:10061000FFF748FE03E0032D01D1FFF7B0FE010014
:1006200009D02846DFF8601309684969884703281C
:1006300001D1092012E0002801D008200EE0062098
:100640000021DFF85C23126892B2DFF8583303EB25
:10065000420211603021DFF84423118021680872C2
:1006600031BD38B5DFF814432068417800250629EC
:1006700016D101787F22114279D18078012803D1E7
:10068000C1480068C56972E0022803D1BE4800680D
:10069000056A6CE003286AD1BB480068456A66E0D9
:1006A000002940D14288002A3DD1C288022A3AD18D
:1006B0000279002A37D101787F22114204D1828841
:1006C000002A01D1B94D52E001F07F02012A0DD17B
:1006D00029464079AC4A126892699047002846D171
:1006E0002068807A002842D0B04D40E001F07F01C0
:1006F00002293CD1407900F00F0100F07002A44BB8
:10070000000653F8210002D500F0300001E000F4AB
:1007100040509C4B1B78994229D2002A27D10028AF
:1007200025D0A24D23E0082905D100787F21084279
:100730001DD19F4D1BE00A2919D1017801F07F01DD
:10074000012914D1817A002911D0418800290ED1C4
:10075000017900290BD1C188012908D129464079A6
:10076000894A126892699047002800D1914D20680B
:10077000290007D000214182206885610846A847EA
:10078000002006E040788049096809698847032805
:1007900006D02368198A0A464FF6FF75AA4203D18C
:1007A00009202168087231BD022801D0080002D159
:1007B0000820187231BD1878000627D5D888009017
:1007C000009D8D4202D20098188216E00B468342AB
:1007D00013D26D48006890F82C000346994203D26A
:1007E00000207149087008E092FBF0F100FB112035
:1007F000002802D101206C4908706348006890F815
:100800002C0021688882BDE8314068E60320187218
:100810004FF440506049088031BD38B560480068E9
:1008200080B2654901EB40000088644911EB400447
:10083000524D2868017A092911D021780170607819
:1008400029684870A08800F0CDF92968488020897F
:1008500000F0C8F929688880A0892968C88001202B
:10086000296808722868C088002802D1FFF78BFE2B
:1008700001E0FFF7F6FEBDE8314048E010B53F4C1F
:100880002068017A022901D0042904D1FFF727FE4C
:100890002068007A16E0062913D1417805290AD18B
:1008A00001787F22114206D1C07800F04AF834481E
:1008B0000068006A804734480068806880470820E4
:1008C00000E0082021680872BDE810401FE010B564
:1008D0002A4C2068007A022801D0042801D108207F
:1008E00011E0032801D0052804D1FFF7A5FD2068F9
:1008F000007A08E0072805D123480068C0688047CF
:10090000082000E0082021680872BDE8104080B58A
:10091000204890F82C10002000F030F917480068AB
:10092000017A082906D14FF480511B4A1180102109
:100930001A4A1180007A092801D1012002BD002045
:1009400002BD70B40F4909780022114C48F68F7629
:100950000CE01346DBB254F8235035401D4345F4F8
:10096000004545F0800544F82350521C8A42F0D3DC
:1009700040F080001249086070BC70478407002076
:100980008C07002088000020880700204C080020E9
:10099000005C00408C000020540800205608002015
:1009A000505C00400460004061080020FB0100082A
:1009B000310100088B010008086000400060004021
:1009C0004C5C0040704700004FF6F8710840DFF8BB
:1009D00000120860704710B4DFF8F82152F8203098
:1009E00048F68F142340194342F8201010BC70477A
:1009F00010B4DFF8E02152F8203048F6BF742340ED
:100A0000CC0601D583F01003890601D583F02003BD
:100A100043F4004141F0800142F8201010BC7047BF
:100A200010B4DFF8B02152F820304BF68F74234019
:100A3000CC0401D583F48053890401D583F4005399
:100A400043F4004141F0800142F8201010BC70478F
:100A5000DFF8801151F8202048F6BF731A4082F069
:100A6000300242F4004242F0800241F820207047F8
:100A7000DFF8601151F820204BF68F731A4082F492
:100A8000405242F4004242F0800241F82020704778
:100A9000DFF8401151F8202048F68F631A4042F4E5
:100AA000004242F0800241F820207047DFF8241114
:100AB00051F8202052040AD551F8202048F68F73AF
:100AC0001A4042F4404242F0800241F82020704730
:100AD000DFF8001151F8202052060AD551F82020E5
:100AE00048F68F731A4042F4004242F0C00241F8C7
:100AF00020207047DFF8D820126892B202EBC000C5
:100B0000400000F1804000F5C04049084900016004
:100B10007047DFF8BC20126892B202EBC000DFF829
:100B2000B82002EB40004908490001607047DFF837
:100B3000A010096889B201EBC000400000F18040BC
:100B400000F5C040006880B27047DFF88410096883
:100B500089B201EBC000DFF8801001EB40000068B3
:100B600080B27047DFF86820126892B202EBC000D2
:100B7000DFF8682002EB400001607047144A1268F9
:100B800092B202EBC000164A02EB40023F2908462F
:100B90000ADB40091F23194200D1401E80B28002A7
:100BA00040F40040106070474008C90700D5401C61
:100BB00080B28002106070470549096889B201EB74
:100BC000C000074901EB40000068C0F3090070470E
:100BD000505C0040005C0040086000400460004041
:100BE0000C6000400146C0B2000240EA112070478C
:100BF00010B4490001F1804101F5C041521C52106E
:100C000007E00378447843EA042321F8043B801C7E
:100C1000521EF6D110BC7047490001F1804101F528
:100C2000C041521C521004E051F8043B20F8023B32
:100C3000521EF9D17047000010B586B00121042082
:100C400000F086FA01214FF4003000F08CFA042005
:100C5000ADF8000018208DF8030003208DF8020085
:100C6000E14C6946204600F0B7FA0820ADF80000D4
:100C700004208DF8030003208DF802006946204609
:100C800000F0AAFA4FF4E130019000200290ADF894
:100C90000C00ADF810000C20ADF80E00D34C01A9EB
:100CA000204600F045FB012240F22551204600F08D
:100CB000A1FB0121204600F091FB06B010BD10B54C
:100CC00086B00121082000F043FA01214FF4802072
:100CD00000F049FA4FF48060ADF8000018208DF85C
:100CE000030003208DF80200C14C6946204600F045
:100CF00073FA4FF40060ADF8000004208DF8030093
:100D000003208DF802006946204600F065FA4FF492
:100D1000E130019000200290ADF80C00ADF8100019
:100D20000C20ADF80E00B34C01A9204600F000FBEA
:100D3000012240F22551204600F05CFB01212046B3
:100D400000F04CFB06B010BD10B586B0012110209C
:100D500000F0FEF901214FF4002000F004FA4FF4F6
:100D60008060ADF8000018208DF8030003208DF896
:100D70000200A14C6946204600F02EFA4FF40060B4
:100D8000ADF8000004208DF8030003208DF8020068
:100D90006946204600F020FA4FF4164001900020EA
:100DA0000290ADF80C00ADF810000C20ADF80E006C
:100DB000924C01A9204600F0BBFA012240F22551D5
:100DC000204600F017FB0121204600F007FB06B08B
:100DD00010BD10B586B00121102000F0B9F9012135
:100DE000202000F0B5F901214FF4801000F0BBF98C
:100DF0004FF48050ADF8000018208DF80300032058
:100E00008DF8020069467C4800F0E6F90420ADF850
:100E100000008DF8030003208DF802006946784831
:100E200000F0DAF94FF41650019000200290ADF86E
:100E30000C00ADF810000C20ADF80E00714C01A9AB
:100E4000204600F075FA012240F22551204600F0BC
:100E5000D1FA0121204600F0C1FA06B010BD80B5DC
:100E60004FF4E06000F022FB25208DF80000002008
:100E70008DF801008DF8020001208DF8030068460E
:100E800000F019FB26208DF8000000208DF80100ED
:100E90008DF8020001208DF80300684600F00BFB7E
:100EA00027208DF8000000208DF801008DF8020049
:100EB00001208DF80300684600F0FDFA34208DF81B
:100EC000000000208DF801008DF8020001208DF84F
:100ED0000300684600F0EFFA35208DF8000000208E
:100EE0008DF801008DF8020001208DF8030068469E
:100EF00000F0E1FA01BD38B53C4C40F225552946D9
:100F0000204600F0A6FA002806D0A08800F00CFBCE
:100F10002946204600F0C1FA29462046BDE8344063
:100F200000F0BBBA38B5334C40F22555294620466F
:100F300000F085FA002806D0A08800F02DFC294694
:100F4000204600F0AAFA29462046BDE8344000F0C9
:100F5000A4BA38B5294C40F225552946204600F060
:100F60006EFA002806D0A08800F09FFC2946204693
:100F700000F093FA29462046BDE8344000F08DBACF
:100F800038B5204C40F225552946204600F057FA46
:100F9000002803D02946204600F07FFA2946204643
:100FA000BDE8344000F079BA17480021017000F123
:100FB000210100220A7004224A7000228A7000F186
:100FC00044010A7003224A7000228A7000F167010E
:100FD0000A7002224A7000228A708A30114601701B
:100FE00001214170704700000008014000440040AA
:100FF000000C01400048004000100140004C00403F
:101000000014014000500040D805002010B50446EF
:1010100000F00DFA4021204600F011FA0128F9D124
:1010200040212046BDE8104000F010BA70B50446DB
:101030000D4616460EE015F8011B204600F0F7F9A4
:101040004021204600F0FBF90128F9D1402120463B
:1010500000F0FCF93046461EC0B20028EBD170BD4E
:1010600070B504460D46002603E02046FFF7CEFF8C
:10107000761CF6B2A95D0800F7D170BD4C49086036
:1010800070474C4900220A700A70012802D00428D7
:1010900003D0704701200870704705200870704722
:1010A00044490A6810430860704743490860704724
:1010B00010B43E490A6802F00C02082A18D10A68E6
:1010C00002F470120B6803F48033920C921C002B14
:1010D00003D13A4B5A4302600CE00B689B0303D5E3
:1010E000364B5A43026005E0354B5A43026001E03B
:1010F000334A02600A6802F0F003324A1B09D35CEB
:101100000468DC4044600B6803F4E0631B0AD35CB2
:10111000DC4084600B6803F46053DB0AD35C4468F2
:10112000DC40C460096801F4404102EB9131097C64
:10113000B4FBF1F1016110BC7047234A002911682A
:1011400002D008431060704721EA00001060704729
:101150001E4A0029116802D008431060704721EA36
:101160000000106070471A4A0029116802D0084335
:101170001060704721EA0000106070471549086050
:10118000704701464909084A012901D1116804E064
:10119000022901D1116A00E0516A00F01F00C1402C
:1011A00001F00100704700000010024004100240EE
:1011B000D8004242201002403C04424200093D0057
:1011C00000127A001800002014100240181002408B
:1011D0001C10024040044242F0B40023CC7804F0DA
:1011E0000F02E40601D58C7822430C88E4B2002C6F
:1011F0001CD0046803E0482D00D106615B1C082B5D
:1012000013D2012505FA03F635460F882F40AF4269
:10121000F4D19D000F27AF40BC4302FA05F52C43E3
:10122000CD78282DE7D14661E8E704600B88FF2BD5
:101230001FDD4468002319E0012503F1080605FAC3
:1012400006F635460F882F40AF420ED19D000F277E
:10125000AF40BC4302FA05F52C43CD78282D00D1D0
:101260004661CD78482D00D106615B1C082BE3D385
:101270004460F0BC704700228068084200D0012220
:10128000104670470161704741617047002A01D0E4
:10129000016170474161704770B4234A002801D54D
:1012A000946900E01468C0F3034583B200F440166B
:1012B000B6F5401F06D124F07064156825F07065FE
:1012C00015600FE0C60206D5032606FA05F5AC4305
:1012D00044F0706406E0450D2D0103FA05F5AC43BA
:1012E00044F07064002904D0410D090103FA01F1B2
:1012F0000C43002801D5946100E0146070BC704775
:1013000030B48A0002F00C026FF003031940074B5F
:101310005C580F259540AC435C505C58904020438E
:10132000585030BC704700000400014008000140E4
:1013300030B585B004460D46208A4CF6FF71084052
:10134000E98808432082A0894EF6F3110840A98855
:1013500008432989084369890843A081A08A4FF678
:10136000FF410840A9890843A0826846FFF7A0FE14
:101370001948844201D1039800E002982968192293
:101380005043A289120403D54900B0FBF1F102E0F9
:101390008900B0FBF1F16420B1FBF0F0000102091B
:1013A000642303FB1211A289120408D5C90032314B
:1013B0001A46B1FBF2F101F00701084307E0090109
:1013C00032311A46B1FBF2F101F00F0108432081DE
:1013D00005B030BD000000000038014000298189BF
:1013E00003D041F40051818170474DF6FF721140E6
:1013F0008181704710B40B46DBB25B09012401F018
:101400001F0104FA01F1012B01D10C3004E0022B81
:1014100001D1103000E01430002A026802D01143DC
:10142000016002E022EA0101016010BC7047C1F3D3
:101430000801818070478088C0F30800704700224F
:101440000088084200D0012210467047C94301803D
:10145000704730B40A4600211346DBB25B09012411
:1014600002F01F0504FA05F5012B02D183892B40F8
:1014700006E0022B02D1038A2B4001E0838A2B4035
:10148000120A04FA02F200881040002B02D0002851
:1014900000D02146084630BC70470122090A02FAF2
:1014A00001F189B2C943018070470000194908431E
:1014B00019490860704770B403781A460121C4784E
:1014C000002C1CD0144B1B6803F4E063C3F5E063ED
:1014D0001B0A4478C3F10405AC4085780F26DE4032
:1014E00006EA050323431B010C4CA354007800F0CB
:1014F0001F0291400A4A401142F8201007E003F011
:101500001F0001FA00F00749521141F8220070BC97
:10151000704700000000FA050CED00E000E400E078
:1015200000E100E080E100E038B500210A46334CDC
:1015300094F88A30234483F86A0094F88A00401CA7
:1015400084F88A0004F16A031D78552D50D1C0B289
:101550000B2806DA31BD204490F86A004118C9B260
:10156000521CD2B210460A28F5DB987A81423FD14C
:10157000587851280CD0522811D053281DD0542807
:1015800014D0572820D0582825D059282AD02FE009
:10159000062204F16C011A4800F0C4F928E0062282
:1015A00004F16C01174800F0BDF921E0062204F1B6
:1015B0006C01154800F0B6F91AE0082204F16C013C
:1015C000124800F0AFF913E0082204F16C01104852
:1015D00000F0A8F90CE0082204F16C010D4800F0BD
:1015E000A1F905E0082204F16C010B4800F09AF91A
:1015F000002084F88A0031BD00000000D8050020DA
:10160000340700203A07002040070020460700204A
:1016100058070020600700204E0700207047FDE7B4
:1016200010B582B001210820FFF792FD0220ADF82D
:10163000000010208DF8030003208DF802007D4C7F
:1016400069462046FFF7C8FD02212046FFF71CFE31
:1016500013BD17B583B09DF80C008DF800009DF800
:101660000D008DF80100002006E0734901448978DF
:101670006A4602449170401C0828F6DB6D4C02213A
:101680002046FFF7FFFD0A2269466C48FFF7CEFCB3
:10169000022000F091F902212046FFF7F5FD06B087
:1016A00010BD30B40022552502E023449D70521C29
:1016B000D2B21446604B082CF7DB48221A7041EA7C
:1016C0000010587093E8070030BCC2E730B4002225
:1016D000552502E023449D70521CD2B21446564B4D
:1016E000082CF7DB48221A70000140F00100587006
:1016F000997093E8070030BCABE718B44E4B482410
:101700001C70000140F0040058700846000A9870F0
:10171000D9701046000A18715A7155209871D87105
:101720001872587293E8070018BC92E718B40021A9
:10173000552402E01A449470491CC9B20B463E4A33
:10174000082BF7DB48211170000140F00A005070AF
:101750000120907007CA18BC7BE710B50446FFF75C
:101760005FFF00210846FFF79CFF1E2000F031F9C3
:1017700000210846FFF795FF1E2000F02AF90021FE
:101780000846FFF78EFF4FF4FA7000F022F9214669
:101790000020BDE8104099E7F0B4294991F867208E
:1017A0000A4482F8470091F86700431C81F86730CB
:1017B00001F147021078DBB20A2B33DB48282ED127
:1017C000537803F00B040B2C29D11B091D4C957881
:1017D000D67846EA052504EB4306F58032255D43BD
:1017E00025441679577947EA062625F8266C967916
:1017F000D7793F0447EA0666177A46EA0726527AFF
:10180000324304EB8303DA66182206E005EB420359
:10181000283B1C885C80521ED2B2002AF6D10022DE
:1018200081F86720482802D0002081F86700F0BCCA
:1018300070470000000C01401C08002000480040D8
:10184000D80500206406002038B5344C32A529465E
:101850002046FFF705FCC82000F0BBF829462046CB
:10186000BDE83440FFF7FCBB10B588B0A5248DF867
:1018700000408DF801008DF80210002005E0115C99
:101880006C460444E170401CC0B219468842F6DB45
:10189000684608445A1DC270AA210171D2B2694635
:1018A0001E48FFF7C3FB08B010BD10B41C4991F8E7
:1018B00044200A4482F8240091F84400401C81F836
:1018C000440001F123004278A52A02D0002281F8C9
:1018D000442091F84420202A02DB002281F8442091
:1018E00091F8442013465C1E042C13DB0B44223376
:1018F0005C78AA2C0ED11B7893420BD1C278802A37
:1019000003D0812A01D0822A04D101220270002052
:1019100081F8440010BC704741540000004C004066
:10192000D805002062B38B0708D0521E11F8013B86
:1019300000F8013B00F024808B07F6D1830740F0CC
:10194000208000BF103A07D330B4B1E83810103A05
:10195000A0E83810F9D230BC530724BFB1E8081012
:10196000A0E8081044BF51F8043B40F8043BD207FC
:1019700024BF31F8022B20F8022B44BF0B780370F0
:101980007047083A07D3B1E80810083A40F8043B1A
:1019900040F804CBF7D25307E4E70000054841685C
:1019A000491C416002888A4201D20021416000F056
:1019B00035B800003C0800200146481E89B20029C5
:1019C00006D005210A46511ED2B2002AFAD1F3E709
:1019D0007047002104E0521C92B29A42FBDB491C82
:1019E0000A46034692B29A4203D2002242F64503C7
:1019F000F2E7704780B501211020FFF7A9FB4FF4F3
:101A00000050ADF8000010208DF8030003208DF881
:101A1000020069463648FFF7DFFB01BD35484188C3
:101A200042688A4205D200224FF400513048FFF745
:101A30002DBC08D30188914205D301224FF40051F7
:101A40002B48FFF723BC0021416070472A480178EA
:101A5000491C0170C9B2264801EBD1725210B1EB9A
:101A6000420104D101224FF40051FFF70FBC0022C4
:101A70004FF40051FFF70ABC10B582B001210820D5
:101A8000FFF766FB4FF40070ADF8000010208DF8F2
:101A9000030003208DF80200184C69462046FFF72A
:101AA0009BFB00224FF400712046FFF7EFFB13BDB4
:101AB000F8B504460D460026104F12E001224FF4FF
:101AC00000713846FFF7E2FB2846FFF782FF00224D
:101AD0004FF400713846FFF7D9FB2846FFF779FF2E
:101AE000761C30462146C0B28842E7D3F1BD0000E3
:101AF000001001403C0800205F080020000C01405D
:101B000001780120D4E7000080B503208DF80000A3
:101B100000208DF801008DF8020001208DF80300EF
:101B20006846FFF7C8FC01BD30B583B00024012131
:101B30004FF0C050FFF717FB012000F05FF945F2AE
:101B40005005042000F075F9A8423DD000F05CF982
:101B50000120FFF796FA03E0641C0A20FFF739FF23
:101B60004120FFF70EFB0028F6D0E4B2FA2C01DB8F
:101B700001203EBD4FF48070FFF792FA0120FFF77D
:101B800094FA00F0A2F900F0A5F90121084600F04E
:101B90005FF900F09AF900F066F94FF4004000F0A8
:101BA00087F900F092F9002001900090034601228D
:101BB000114640F2B27000F04CF800F05AF9294694
:101BC000042000F02AF907E000F084F9012108461A
:101BD00000F03EF900F079F9FFF796FF00F09DF86C
:101BE00000203EBD80B5012000F07EF9002807D01E
:101BF00000F093F87A480178491C017000F099F9D7
:101C0000022000F071F9052000F07DF9BDE80140E7
:101C100000F05BB9411000EB91718910B0EB8101CC
:101C200015D1642190FBF1F1642202FB110100291E
:101C30000BD14FF4C87190FBF1F14FF4C87202FB65
:101C40001100401E8041C00F7047012070470020E6
:101C500070472DE9F84F0446884615461E46002772
:101C6000A4F2B270822801D3012054E040F2B2798C
:101C700003E05C48C71909F101094846214680B2D2
:101C800088420AD2484680B2FFF7C4FF0028F0D04D
:101C900007F1F17707F50547EDE7A8F101084FF0E7
:101CA0000009DFF844A113E01FFA89F9CB460FF2CF
:101CB000401010F80B000AFB00772046FFF7AAFF40
:101CC000002803D0BBF1010F00D1574409F10109ED
:101CD00048464146C9B280B28842E5D301214FF05F
:101CE000C050FFF740FA012000F088F8681E0AFB98
:101CF00000704FF4616101FB06010A98C0EB00120D
:101D000001EB82010B98401800F0C7F800F0DDF8F5
:101D100000F003F80020BDE8F28F2DE9F84300F051
:101D2000AFF805463048B5FBF0F637462F4CA08992
:101D3000B8423CD0A78140F2B27803E0A7F26D1719
:101D400008F10108B7F5B67F0DD9404680B2FFF71C
:101D500061FF0028F2D0B7F5B77F02D3A7F5B777B8
:101D6000EEE708F10108A4F804804FF0000802E053
:101D70003F1A08F101081C2F14D31FFA88F8C14636
:101D8000A088FFF747FF002806D0B9F1010F03D163
:101D90001D2F07D31D3FECE70FF2540010F8090088
:101DA0008742E5D208F10100A071781CE0710E486D
:101DB00000FB16504FF46161B0FBF1F121704FF45C
:101DC000616202FB11003C21B0FBF1F16170C1EBDB
:101DD0000112A0EB8200A0700020BDE8F283000099
:101DE000600800208033E101805101000C080020D0
:101DF0001F1C1F1E1F1E1F1F1E1F1E1F01490860C4
:101E00007047000020000E4280B50120FFF7B6F9B0
:101E10000020BDE80240FFF7B1B981B00022009276
:101E20000A4A0092009A801800900098016001B060
:101E3000704781B000210091044900910099401839
:101E400000900098008801B070470000006C0040CE
:101E5000304A0029118802D008431080704721EAD7
:101E60000000108070472C48018841F0100101806B
:101E70007047294801884FF6EF7211400180704782
:101E80002648018882880388994203D0808840EAE6
:101E90000340704742EA0140704710B50446FFF71F
:101EA000E2FF1E48210C01808480BDE81040E0E77D
:101EB00010B50446FFF7D7FF1948210C01F00F01B8
:101EC00001808480BDE81040D3E713480088800675
:101ED000FBD57047104801884FF6F772114001801A
:101EE00001880907FCD570470A498A880240098899
:101EF000014206D01046C0B2401E8041C043C00F10
:101F000070470020704704490A8822EA00000880D0
:101F100070470000002800400428004018280040B6
:101F20000828004040480021018041F28831C180EA
:101F300070473D480178002902D10021418081800D
:101F400000210170704738490278437843EA022241
:101F50004A808278C07840EA022088800120087098
:101F6000704738B5304C60880246E1880120FFF7A1
:101F7000C4FB0120FFF72DFDA0880246E188022066
:101F8000FFF7BBFB0120FFF724FD284D206F00F079
:101F90004FF8A84204DA606F00F04AF8A8420BDB61
:101FA0000020A081E0870320FFF7D7FB4FF4FA70F1
:101FB000BDE83240FFF70DBD31BD80B50120FFF710
:101FC000B5FB0320FFF705FD0220FFF7AFFB032061
:101FD000BDE80240FFF7FDBC10B40020014605E05B
:101FE00002EB4302B2F90C201018491CC9B20B468F
:101FF0000D4A192BF4DB02F17801192390FBF3F061
:1020000008800020034605E002EB4404B4F93E409A
:1020100020185B1CDBB21C46192CF5DB192290FB47
:10202000F2F0488010BC704764060020FCFFFF3FC0
:10203000002800D54042704710B54FF4FA60FFF712
:10204000C8FCFFF7D7FC00F0D3F800F089F8FFF7E1
:1020500013FDFFF769FD00F03EF9FEF7EDFDFFF718
:10206000DEFAFEF72CFE0320FFF777FBFFF75AFF9F
:10207000FEF76AFEFFF7E8FBFEF7ABFEFEF7EFFEAA
:10208000FEF792FF47214CF24F3000F0A9F900F023
:1020900061FB40F2CF24214640F6B83000F0D2F97F
:1020A00021464FF4FA6000F001FAC8210120BDE892
:1020B0001040FFF7FDBC30B585B0264C04F123017C
:1020C00084B068462322FFF72DFC0FBC00F091FC82
:1020D000214684B068462322FFF724FC0FBC00F0A1
:1020E00088FCFFF73EFFFFF768FFFFF775FF18203A
:1020F00000F0CFF800F0D0FC174C94F87C000128D9
:1021000026D1FFF7A3FC032000F07CFB0A20FFF799
:1021100053FC00F0B0FB0A20FFF74EFC00F0E1FB9F
:102120000A20FFF749FC00F01DFC0A20FFF744FCE1
:102130000A4D2878411C2970282806DB00F086FB10
:102140000A20FFF739FC00202870002084F87C006A
:1021500005B030BDD8050020640600205E080020D0
:102160003EB5002425E0424804EB840110EB8105D4
:10217000E97AA87AFFF7C4F8E868019000208DF8A2
:10218000080008208DF8090001208DF80A0001A838
:1021900000F0BCFC287C8DF8000002208DF80100C6
:1021A0008DF8020001208DF803006846FFF783F9DF
:1021B000641C022CD7DB37BD2D48082101602D4956
:1021C000416004220281012282720222C272042230
:1021D000C26008220274426181610121818381779A
:1021E0000021C17701210162062180F82410704787
:1021F00030B585B0FFF7E0FF002435E01C4804EB64
:10220000840110EB810501212868FEF7A1FF2889D0
:10221000ADF8040004208DF8070003208DF80600B7
:1022200001A96868FEF7D8FFE97AA87AFFF768F88D
:10223000E868029000208DF80C0010208DF80D0049
:1022400001208DF80E0002A800F060FC287C8DF8BB
:10225000000001208DF801008DF802008DF80300C8
:102260006846FFF728F9641C022CC7DB05B030BDB7
:1022700090070020000C014080B55148008800F014
:102280008FFC504A504B00F099FC00F069FD80B281
:1022900002BD38B504464D4D28780A281AD1FFF7FB
:1022A000EBFF44F25161884214DB4FF47A704443EF
:1022B000FFF7E2FFA4F5FA71884203DBFFF7DCFFCA
:1022C000A04207DA0020287064210220BDE83440D3
:1022D000FFF7EEBB31BD10B592B001210846FEF705
:1022E0002CFF012140F20520FEF732FF0120ADF85E
:1022F000000003208DF8020000208DF803006946DD
:102300003348FEF769FF334C204600F04FFD32485A
:1023100006902B480790002008900120099000208B
:102320000A9080200B904FF480700C904FF48060E6
:102330000D9020200E904FF400500F900020109030
:1023400006A9204600F0A8FD0121204600F0BFFDAF
:102350000020019001208DF808008DF809004FF44D
:10236000602003900020049001208DF814001B4C85
:1023700001A9204600F0D4FD0723012200212046B8
:1023800000F021FE0121204600F0F3FD012120464E
:1023900000F0E4FD204600F0F7FD204600F0F9FDD6
:1023A0000028FAD1204600F0F9FD204600F0FBFDA0
:1023B0000028FAD10121204600F0FAFD12B010BD2C
:1023C0001A08002019C91EA1664823406008002091
:1023D00000080140080002404C2401400024014054
:1023E00030B585B004460D4601210846FEF7BBFE18
:1023F000ADF80840ADF804500020ADF80A00ADF883
:10240000060001A94FF0804000F020FE012240218B
:102410004FF0804000F06EFE1C208DF80000002080
:102420008DF8010003208DF8020001208DF80300D3
:102430006846FFF740F801214FF0804000F04EFE63
:1024400005B030BD30B585B004460D4601210420ED
:10245000FEF789FEADF80840ADF804500020ADF855
:102460000A00ADF80600744C01A9204600F0EEFD0C
:1024700001224121204600F03DFE0121204600F0CE
:1024800043FE1E208DF8000000208DF8010004207E
:102490008DF8020001208DF803006846FFF70BF865
:1024A0000121204600F01AFE05B030BD30B585B0E0
:1024B00004460D464FF4E060FEF7F8FF01210820C6
:1024C000FEF751FEADF80840ADF804500020ADF81D
:1024D0000A00ADF80600594C01A9204600F0B6FDEF
:1024E00001221146204600F005FE0121204600F0A1
:1024F0000BFE32208DF8000005208DF801008DF8CC
:10250000020001208DF803006846FEF7D4FF012188
:10251000204600F0E3FD05B030BD80B501214FF04D
:10252000804000F001FE002804D001214FF08040DF
:1025300000F006FE01214FF08040BDE8044000F0AD
:10254000FFBDF0B583B03C4C0121204600F0ECFD0E
:10255000002854D018253A4E3A4F30786843384412
:102560000069009000208DF8040010208DF805000F
:1025700000208DF80600684600F0C8FA01212046C8
:1025800000F0DEFD307806EB40018A8802EB021293
:102590004FF47A7392FBF3F28A82401C3070C0B21F
:1025A000082801D100203070307847F22F5106EB17
:1025B000400291806843391889883858FEF762FED6
:1025C0001420FFF7F9F930786843391889883858AA
:1025D000FEF75AFE307868433844006900900120C5
:1025E0008DF80600684600F091FA00214FF0804017
:1025F00000F096FD00214FF0804000F06FFD0121BA
:10260000204600F09DFDF7BD10B50C4C0121204681
:1026100000F08AFD002807D001200B4981F87C00DA
:102620000146204600F08CFD01212046BDE8104007
:1026300000F086BD0000000000080040000C0040D3
:10264000B8070020180500206406002070B4684810
:10265000684901608022828081604FF480728281AB
:10266000012383730823C3730261172303758161F8
:102670002023838301624023838400F12603012405
:102680001C7006245C7000F128044023236017238B
:102690002371A1600823A38121611023A382012358
:1026A000A3750423E3751023A3610A232377524BF8
:1026B0002362A284A3624FF40043A38500F1560471
:1026C000002525700F25657000F15804236028252A
:1026D00025714A4DA560A28125614FF40072A28246
:1026E0000226A6750926E675A261172222772562C1
:1026F0004022A284A5628022A28500F186020224E3
:1027000014700724547000F1880280241460172488
:10271000147191604FF40054948111614FF480540E
:102720009482012595750C25D5759461282414771C
:102730001162938491624FF48041918500F1B60259
:10274000012313700E235370B830016021460171CC
:1027500070BC704730B585B0FFF778FF012128487D
:10276000FEF79AFD01213D20FEF7F2FC00243BE03C
:102770001F4804EB440110EBC105A888ADF8000028
:1027800010208DF8030003208DF8020069462868A8
:10279000FEF722FDA889ADF8000028208DF803007F
:1027A0006946A868FEF718FDE97BA87BFEF7A8FD3F
:1027B0002869029000208DF80C0010208DF80D0083
:1027C00000208DF80E0002A800F0A0F9287D8DF8F9
:1027D000040001208DF805008DF806008DF8070033
:1027E00001A8FEF768FE641C082CC1DB05B030BDF3
:1027F00018050020000C01400008014000100140B5
:10280000000230001FB500226C460DE08E4902EB3D
:10281000D2735B1031F813301946090AA154694686
:1028200011444B70921CD2B28242EFDB440023462B
:10283000DBB26A4680210520FFF716F82346DBB29B
:102840006A468021052000F007F91FBD80B5FFF71B
:1028500013FD01128DF800108DF8010002236A4665
:1028600080210620FFF700F802236A468021062017
:1028700000F0F2F801BD00B587B07448B0F900105F
:102880000A128DF800208DF80110B0F90220694677
:1028900013128B70CA70B0F9042013120B718DF8EB
:1028A0000520B0F9062013128B718DF80720B0F9BE
:1028B000082013120B728DF80920B0F90A000212D9
:1028C0008A728DF80B000C236A4680210320FEF7E4
:1028D000CBFF0C236A468021032000F0BDF807B02F
:1028E00000BD00B587B05948B0F912100A128DF832
:1028F00000208DF80110B0F914100A128DF8022092
:102900008DF80310B0F916106A460B1213718DF88A
:102910000510B0F91A100B128DF806308DF807105B
:10292000B0F91C100B1213728DF80910B0F91E10BB
:102930000A128DF80A208DF80B10B0F92000011250
:102940008DF80C108DF80D000E236A4680210420AE
:10295000FEF78AFF0E236A468021042000F07CF8EF
:1029600007B000BDE0B53A48B0F978100A128DF80A
:1029700000208DF80110B0F97A20694613128B708F
:102980008DF80320026F13168DF8043013148DF8A0
:10299000053013128DF806308DF80720406F0216AF
:1029A0000A7201148DF8091001128DF80A108DF8C1
:1029B0000B000C236A4680210220FEF755FF0C23F2
:1029C0006A468021022000F047F807BD002101E09F
:1029D000491CC9B220290ADA425CAA2AF8D1421855
:1029E00012F8012C4B1C9A42F2D1012070470020B2
:1029F00070470FB480B59DF80800012820D10DF173
:102A00000900FFF7E3FF00281AD09DF80A0001280B
:102A100002D0022804D006E003A8FFF771F802E014
:102A200003A8FFF790FA9DF82A00042802D100219C
:102A3000084A1170032803D10020064981F82300B9
:102A400001BC5DF814FB0000CC0700203407002017
:102A500064060020D805002010B588B0A5248DF8A4
:102A600000408DF801008DF80210002005E0115C97
:102A70006C460444E170401CC0B219468842F6DB43
:102A800068460844591DC170AA220271C9B268463D
:102A900000F06EFB08B010BD3EB500200146552287
:102AA0008DF800206A4653235370174BB3F9124038
:102AB00025468DF8025024128DF80340B3F91440D6
:102AC00025468DF8045024128DF80540B3F91640C0
:102AD00025468DF8065024128DF80740B3F91830BA
:102AE00013721B128DF8093003E0D35C1818C0B2C2
:102AF000491CC9B20B460A2BF7DB90720B216846C2
:102B000000F036FB37BD00003407002030B4016808
:102B1000CB4321498279002A26D00A4614682340F3
:102B2000136053680468A34353600379CC18236887
:102B300005682B43236093680468A3439360D368BC
:102B40000468A343D36043790568102B07D19168CB
:102B500029439160D16800680843D06009E0CC182F
:102B600020682843206004E000790C182068184091
:102B7000206030BC70470021074A13680340526947
:102B8000024202D0002B00D00121084670470349C1
:102B90000860704700000000000401401404014078
:102BA000010000BF09D0B0FA80F18840C91CC1F50E
:102BB0008461090501EBD02140057047B0B581EA79
:102BC000030C0CF0004C40F2FF7515EA11541DBFC8
:102BD00015EA1357AC42AF4239E0E41923EA4553F2
:102BE00043F48013C90241F0004141EA505EC7023C
:102BF0001100A7FB020200284FF00000EEFB0120AD
:102C00004FF00001E3FB072118BF42F0010240181A
:102C100000214941E3FB0E01A4F580640F0302D2B9
:102C200052004041494154F101046CDD470872F102
:102C3000004250F1000051EB0451A1F580115CBF3E
:102C400041EA0C01B0BD4CEA05510020B0BD05EAD7
:102C50001357AC4214BFAF4241E050EA410E1CBFD3
:102C600052EA430E02E061460020B0BD24423C44DB
:102C70001BD15FEA070EF6D0090302BF0146002010
:102C8000AEF1140EB1FA81F7AEEB070401FA07FEBC
:102C90000C37C7F1200100FA07F7C8404EEA000ED2
:102CA00023EA455343F48013A2E733F00043B3FA19
:102CB00083F704BFB2FA82FE77440B3FE41BB7F1FF
:102CC000200E2FBF02FA0EF3BB40C7F1200E22FAEE
:102CD0000EFE38BF43EA0E03BA40641C82E750EA96
:102CE000410E14BF52EA430E6FF000014FF400177B
:102CF00017EB430F8ABF194617EB410FB5E74CEAB4
:102D000005510020B0BDD4F10104B4F120070FDA61
:102D1000C4F12007520828BF42F0010210FA07F55B
:102D200001FA07F7E1BF2A43E0403843E1400FE0F2
:102D3000352C98DCC7F1200452EA400220FA07F251
:102D400018BF42F0010231FA07F0A1400A43002106
:102D500072F1004250F1000051EB0C01B0BD0000D7
:102D6000F446400D40EAC120490006D200F00EF8BA
:102D7000004248BF6FF00040604700F007F84FF096
:102D8000004188428CBF08464042604740F0004006
:102D9000490DA1F58061491C05D4D1F11F0154BF33
:102DA000C840C01770474FF00000704701684FF6E9
:102DB000FE72114001600021016041608160C160CC
:102DC0004949884205D14948016841F00F01016035
:102DD00070474749884205D14448016841F0F001F5
:102DE000016070474349884205D14048016841F479
:102DF0007061016070474049884205D13B480168D5
:102E000041F47041016070473C49884205D1374820
:102E1000016841F47021016070473949884205D149
:102E20003248016841F470010160704735498842B9
:102E300005D12E48016841F0706101607047324948
:102E4000884205D13148016841F00F0101607047A7
:102E50002F49884205D12D48016841F0F0010160F9
:102E600070472C49884205D12848016841F47061B7
:102E7000016070472849884205D12448016841F41F
:102E80007041016070472549884204D11F4801689C
:102E900041F470210160704702686FF30E128B6875
:102EA0001A430B6A1A430B691A434B691A438B691D
:102EB0001A43CB691A434B6A1A438B6A1A4302605E
:102EC000CA6842600A6882604968C1607047002928
:102ED000016803D041F00101016070474FF6FE72B6
:102EE00011400160704700000800024004000240E9
:102EF0001C000240300002404400024058000240E2
:102F00006C000240800002400804024004040240B9
:102F10001C040240300402404404024058040240B1
:102F20004268484B1A400B681A430B7942EA032265
:102F300042608268444B1A40CB681A438B681A433C
:102F40004B7942EA43028260C26A22F47002097C31
:102F5000491EC9B242EA0151C16270470029816825
:102F600003D041F001018160704749084900816048
:102F700070470029816803D041F4807181607047F7
:102F800021F4807181607047816841F0080181609F
:102F900070478068C00800F001007047816841F008
:102FA0000401816070478068800800F0010070476C
:102FB0000029816803D041F4A0018160704721F4A9
:102FC000A0018160704770B407240A290BDBC56833
:102FD000A1F10A0606EB4606B44025EA0404B34014
:102FE0002343C36008E0056901EB4106B44025EACC
:102FF0000404B3402343036113461F24072B09DA5B
:10300000436B521E02EB82029440A343914019434A
:10301000416314E00D2B09DA036BD21F02EB82022D
:103020009440A34391401943016308E0C36A0D3AF9
:1030300002EB82029440A34391401943C16270BCE9
:1030400070470000FFFEF0FFFDF7F1FF10B40388AA
:10305000DFF8F420904212D0DFF80441A0420ED0F5
:10306000B0F1804F0BD0DFF8E440A04207D0DFF88A
:10307000E040A04203D0DFF8DC40A04204D14FF68C
:103080008F7423404C882343DFF8CC40A04208D003
:10309000DFF8C840A04204D04FF6FF442340CC885C
:1030A000234303808B8883850B88038590420FD050
:1030B000DFF8AC2090420BD0DFF8A820904207D078
:1030C000DFF8A420904203D0DFF8A020904201D185
:1030D000097A01860121818210BC7047002901888C
:1030E00003D041F00101018070474FF6FE7211409C
:1030F00001807047002A828902D011438181704784
:1031000022EA0101818170470029018803D041F042
:103110008001018070474FF67F7211400180704737
:1031200081847047808C70470022038A0B4080891D
:103130000840002B02D0002800D001221046704722
:10314000C943018270470000002C01400004004088
:1031500000080040000C0040001000400014004037
:10316000003401400040014000440140004801405B
:1031700010B50C462246C021FDF73AFD214601203C
:10318000FDF7F0FC0120BDE81040FDF761BC2748C9
:103190000178012900D0704738B525490A68002A0E
:1031A00002D10021017031BD22480368412A1D4629
:1031B00006D3402440330360A2F14000086004E0DD
:1031C0001446D218026000200860224692B2C02144
:1031D0001948ADB22844FDF70BFD214689B2012004
:1031E000FDF7C0FC0120BDE83240FDF731BC10B551
:1031F000124C611C032000F035F884F821000120F6
:1032000020700320BDE81040FDF732BC0C48006878
:10321000052809D10B4801684A1C0260052903D121
:103220000021016000F0B2B870470000E406002001
:10323000300700202C070020E8060020D8050020D9
:1032400058080020500800200448002141604FF435
:103250003F41034A1180016000207047405C0040FC
:103260005C08002070B50C4600F07F052846FDF78D
:10327000A3FC06462846FDF768FC01463246204678
:10328000FDF7CAFC304670BD80B501210820FDF76E
:103290005FFF4FF48040ADF8000003208DF802007E
:1032A00014208DF8030069466148FDF795FF4FF43F
:1032B0008020FFF76CFC5F484FF4802101600821FB
:1032C000417101218171FFF721FC01BD80B5002012
:1032D000FDF7D4FE01214FF40000BDE80440FDF7E6
:1032E00042BF55485549897A002902D0052101601D
:1032F000704701210160704780B54FF4A060FEF770
:10330000D5F814208DF8000002208DF8010000206F
:103310008DF8020001208DF803006846FEF7CBF817
:103320002A208DF8000000208DF801006846FEF785
:10333000C2F825208DF8000001208DF801006846B4
:10334000FEF7B9F801BD3A4A00284FF48041104613
:1033500001D0FDF799BFFDF795BF80B538494FF40F
:1033600016500860002048604FF4C06008810020BB
:1033700088810C204881002000F084F8012240F26E
:1033800025513048BDE80840FEF734B82E48017892
:10339000012900D1704710B5816C402901D100216D
:1033A0008164416C826C8A4202D10021017010BD9F
:1033B000914203D2C2F14001C16401E0891AC164A3
:1033C000C16C4129134605D3402440328264403900
:1033D000C16404E00C46891881640021C1640121A4
:1033E0000170224692B2C0219BB21844001DFDF725
:1033F000FFFB214689B20120FDF7B4FB0120BDE8A7
:103400001040FDF725BB38B5104844680168806856
:1034100040180BD00E4D0822A91C00F01BF8042206
:1034200005F112012046BDE8384013E031BD00002F
:10343000000C0140340800205808002068070020D4
:10344000FC07002000380140E4060020E8F7FF1FD9
:103450002C00002030B4002309E0373401F8134079
:103460000001002401EB43056C705B1CDBB293424E
:1034700006DA040F0A2CF0D2303401F81340EFE7DB
:1034800030BC704770B582B006460C463546012107
:103490000FF2940050F825000FF2940252F8252004
:1034A000104340F00100FDF753FE002E05D101212D
:1034B0004FF48040FDF74CFE06E001210FF2600062
:1034C00050F82500FDF74FFE18208DF803000FF28D
:1034D000680030F81500ADF8000003208DF80200F8
:1034E0000E4800EB85066946B068FDF775FE0420BE
:1034F0008DF803000FF2440030F81500ADF800001D
:1035000069463069FDF768FE21463068FDF710FF17
:1035100001213068FDF762FF73BD0000000000204C
:103520000040000000000200040000000400000051
:103530000400000004000000000204000004080071
:1035400080B5FFF760FF00207A490968887200F0B3
:1035500005F9FFF779FEFFF700FF002076490860C4
:1035600001BD80B573480021026891727349C97921
:103570000268517200210068C1720846FDF724FA02
:103580004FF400710020FDF726FA10210020FDF70E
:103590002FFA40210020FDF7BCFA80210020FDF722
:1035A000A9FA0020FDF774FA654890F82C10002065
:1035B000FDF7E4FA0020FDF75BFA00210120FDF79A
:1035C0000AFAC0210120FDF795FA20210120FDF71C
:1035D0000FFA00210120FDF723FA4FF4C061022009
:1035E000FDF7F9F94FF480710220FDF783FA00210D
:1035F0000220FDF715FA20210220FDF7F9F900213C
:103600000320FDF7E8F94FF488710320FDF781FAF4
:1036100040210320FDF7B2FA4FF440510320FDF79B
:10362000FFF900210320FDF7E3F90020FDF789F9F8
:1036300001204149086001BD4248807A002802D03B
:1036400005203D490860704704203B4908607047E9
:103650003D480178202901D1002101707047704751
:1036600080B50021212809D132480068007800F097
:103670007F00212810D10FF295010DE020280BD1F9
:103680002C480068007800F07F00212801D10FF25B
:10369000910120202C4A1070080001D1022002BDA7
:1036A00024480268916100220068428210468847DF
:1036B000002002BD1F490968097801F07F01212916
:1036C00005D1022801D0222801D100207047022014
:1036D00070471E49FCF7A2BE1D49FCF79FBE154965
:1036E0000968C978052901DB00207047194A02EBF7
:1036F000C101FCF793BE002901D0022070470228C7
:1037000001DB02207047002070470000002805D12F
:103710000820084909680882002070470E48704751
:10372000002805D108200349096808820020704755
:10373000094870478407002058080020703E0008A0
:103740008C0000206807002063080020E0000020B3
:10375000E8000020F00000208000002080B501205B
:10376000FFF7F1FD62480121016000210160416025
:103770004FF4E0515F4A11800160002002BD18B48F
:103780000021084600905A4802685B4C06E05B4BFB
:1037900053F821309BB244F82130491C0829F6D354
:1037A00042F4806189B20A46026041F001010A4692
:1037B00002604FF6FE721140016042685205FCD56E
:1037C0004FF6FF32426000224C4C06E04A4B53F861
:1037D00022309BB244F82230521C082AF6D341F022
:1037E00008010160036843F0040189B201604449A3
:1037F0000A6800920A689208920042F001020A6088
:10380000404A136843F0040313604368DB0405D4A3
:1038100010686FF00401084010600EE04EF6FF7370
:10382000436003684FF6F774234003600098086014
:1038300010686FF004010840106011BC704710B5AB
:103840002B4C20684FF6FB7108402060FFF749FDC4
:103850004FF43F40206010BD10B52B4C072800D01E
:1038600020702078052840D8DFE800F0030E151AF4
:10387000232E6068002804D1FFF7E1FF06202070A6
:1038800010BD0520207010BDFFF7D9FF0420207067
:103890000120606010BD022060700320207010BD08
:1038A0006078401E60706078002820D1042020706D
:1038B00010BD0F48016841F0100189B20160052078
:1038C00020700A20607010BD6078401E60706078C3
:1038D00000280CD1064801684FF6EF7211400160D4
:1038E000062020700020606010BD0620207010BDF2
:1038F000405C00405C080020DC070020005C0040C9
:103900000070004010ED00E044080020F8B50020F1
:10391000ADF80000604C48F280064BF6BF7729E016
:1039200054F82100ADF80000BDF8000000040DD5EA
:1039300054F8210040F68F72104044F82100574897
:10394000297800EB810050F8040C8047BDF8000096
:1039500000060FD5287854F8201089B248F60F7267
:10396000114044F820104E48297800EB810050F8AF
:10397000040C8047616C4B480180090440F18A8047
:10398000018811F00F01484D2970C9D1474D2168B8
:103990002980298801F030016980298801F440518B
:1039A0002980216889B2394081F4005181F02001D9
:1039B000314321600088C006206820D480B248F6D8
:1039C0000F7108402060FCF759FF206880B2384032
:1039D0002988C90401D580F480502988890401D53B
:1039E00080F400506988C90601D580F0100069880C
:1039F000890601D580F0200030432060F1BDADF88C
:103A00000000BDF80000000520D5206840F68F7149
:103A100008402060FCF701FF206880B23840298808
:103A2000C90401D580F480502988890401D580F427
:103A300000506988C90601D580F0100069888906A0
:103A400001D580F0200030432060F1BDBDF80000BA
:103A500000048FD5206840F68F7108402060FCF785
:103A600036FF206880B238402988C90401D580F427
:103A700080502988890401D580F400506988C906DE
:103A800001D580F010006988890601D580F02000FA
:103A900030432060F1BD0000005C00406400002065
:103AA000480000202A080020620800205408002056
:103AB00010B5554C206AFFF75EF800280ED0A18B98
:103AC000A069FDF7D8FB002803D014210120FDF7E1
:103AD000EFFF206ABDE81040FFF759B810BD10B5E0
:103AE000494CE068FFF747F800280ED0218960684C
:103AF000FDF7C1FB002803D014210120FDF7D8FFFA
:103B0000E068BDE81040FFF742B810BD10B53F4C6B
:103B1000206CFFF730F8002816D0A18FA06BFDF7BE
:103B2000AAFB002805D001214FF08040FFF7D6FA0C
:103B300005E04FF08040FFF7F5FA35498880206CAA
:103B4000BDE81040FFF723B810BD70B582B06846DD
:103B50000FF2C0010A68026000240AE04FF08040C2
:103B6000FFF7E0FA2A4921F815003069FFF70FF84E
:103B7000641C042C17DA6846055D244805EB4501F2
:103B800010EBC1063069FEF7F6FF0028F0D0B189CE
:103B9000B068FDF770FB0028E0D001214FF08040B5
:103BA000FFF79CFAE1E773BD70B582B068460FF28B
:103BB00068010A68026000240AE04FF08040FFF7C5
:103BC000B1FA134921F815003069FEF7E0FF641CD3
:103BD000032C17DA6846055D0C4805EB450110EB30
:103BE000C1063069FEF7C7FF0028F0D0B189B06880
:103BF000FDF741FB0028E0D001214FF08040FFF7A6
:103C00006DFAE1E773BD0000900700201805002061
:103C1000BC0700200001040503060700F0B589B0C9
:103C20000024494D494E68687080494F7088398832
:103C30000840800507D54FF6FF5068603078401C7B
:103C40003070FFF7E3FA708839880840000401D526
:103C5000FFF75CFE708839880840400505D54FF6AF
:103C6000FF3068603B48406880477088398808406A
:103C7000800402D54DF6FF7068607088398808406E
:103C8000C00405D54EF6FF7068602046FFF7E4FDDE
:103C900070883988084000050CD52F480078002826
:103CA00002D0FFF76CFD02E00220FFF7D5FD4FF2D6
:103CB000FF706860708839880840C00541D54FF6AC
:103CC000FF606860A868000436D57068401C7060AA
:103CD0007068042832D3286800072FD4286880B27F
:103CE000B060694606E01D4850F8240080B241F8F3
:103CF0002400641C082CF6D3B06840F00100B060CA
:103D0000B06880B22860B06840084000B060B06819
:103D100080B2286068684005FCD54FF6FF306860C7
:103D200000240E4906E0684650F8240080B241F8AD
:103D30002400641C082CF6D3002070600720FFF7D5
:103D40008BFD09B0F0BD00BF405C0040280800209A
:103D50005C0800208C00002010010020005C004066
:103D600080B53948016841F0010101604168374A76
:103D7000114041600168364A11400160016821F438
:103D800080210160416821F4FE0141604FF41F0170
:103D9000816000F005F84FF000602E49086001BD19
:103DA00000BF82B00020019000902748016841F4D4
:103DB00080310160016801F4003100910199491CD2
:103DC00001910099002903D10199B1F5A06FF1D1BA
:103DD0000168490C01F0010100910099012930D1DD
:103DE0001D490A6842F010020A600A6892089200AF
:103DF0000A600A6842F002020A6041684160416854
:103E00004160416841F480614160416821F47C1166
:103E10004160416841F4E8114160016841F08071FE
:103E2000016001688901FCD5416889088900416009
:103E3000416841F002014160416801F00C0108292C
:103E4000FAD102B070470000001002400000FFF8F5
:103E5000FFFFF6FE08ED00E0002002401201000224
:103E600002000040830440570002010203010000E9
:103E700009024300020100C03209040000010202ED
:103E800001000524001001052401000104240202A0
:103E90000524060001070582030800FF090401004C
:103EA000020A000000070503024000000705810226
:103EB0004000000004030904420348006100690057
:103EC000460065006E006700200052006F0062002F
:103ED0006F007400200056006900720074007500C5
:103EE00061006C00200043004F004D000000000006
:103EF0000000000000000000000000005603480021
:103F000061006900460065006E00670020005200F5
:103F10006F0062006F0074002000530054004D00D9
:103F200033003200200055005300420020005600AC
:103F3000690072007400750061006C00200043008D
:103F40004F004D00200050006F0072007400000010
:103F500000000000F0B4016844688368014401EB8C
:103F60005402E40748BF4B44914202D1F0BC0C30EC
:103F7000704711F8015B15F0030604BF11F8014BFF
:103F8000E61C2C090F2C07D111F8014B0F3403E06C
:103F900011F8017B03F8017B761EF9D1002CE3D0E8
:103FA000AD0811F8016B05F00305032D08BF11F8EA
:103FB000015B06EB05256D42A41C1D44D4D015F809
:103FC000016B03F8016B641EF9D1CDE77047FEE782
:103FD000FEE7FEE7FEE7704770477047FFF71EBE3B
:103FE00010B5094C40F225512046FDF732FA082160
:103FF0002046FDF724FA002804D02046BDE81040F2
:10400000FDF719BA10BD0000003801404FF48020C0
:10401000FEF7BDBD19E050F8041BCB0744BFA9F162
:1040200001035918121F0023042A41F8043BF9D256
:104030005FEA827C0B4604D54FF0000CA1F800C06B
:104040009B1CD10744BF0021197050F8042B002A93
:10405000E1D1704710B5074979441831064C7C44CA
:10406000163404E00A68081D114488470146A1423D
:10407000F8D110BD080000002400000099FFFFFFE8
:104080004C0300001805002000000000C9FEFFFFDF
:10409000580100005C010000000000200448C061DD
:1040A0000221017203490162034A42620868004723
:1040B000680700208C000020BC00002080B5FFF7BE
:1040C000E3F8FFF703F9FFF717F9FFF7E7FFFDF74D
:1040D000B3FFFDF7F0FFFCE700F00BF8002801D07C
:1040E000FFF7B8FF0020C046C046FFF7E7FF00F02B
:1040F00002F80120704700F001B80000074638467A
:1041000000F002F8FBE7000080B5C046C046024A56
:1041100011001820ABBEFBE72600020001488047D3
:1041200001480047613D00082D410008C046C046D7
:10413000C046C046FFF7D0FFFFF7FEBFFFF7FEBF48
:10414000FFF7FEBFFFF7FEBFFFF7FEBFFFF7FEBFA3
:10415000FFF7FEBFFFF7FEBFFFF7FEBFFFF7FEBF93
:10416000FFF7FEBFFFF7FEBFFFF7FEBFFFF7FEBF83
:10417000FFF7FEBFFFF7FEBFFFF7FEBFFFF7FEBF73
:10418000FFF7FEBFFFF7FEBFFFF7FEBFFFF7FEBF63
:10419000FFF7FEBFFFF7FEBFFFF7FEBFFFF7FEBF53
:1041A000FFF7FEBFFFF7FEBFFFF7FEBFFFF7FEBF43
:1041B000FFF7FEBFFFF7FEBFFFF7FEBFFFF7FEBF33
:1041C000FFF7FEBFFFF7FEBFFFF7FEBFFFF7FEBF23
:1041D000FFF7FEBFFFF7FEBFFFF7FEBFFFF7FEBF13
:1041E000FFF7FEBFFFF7FEBFC009003801400044E3
:1041F0000040000801041101200201020304041020
:104200001B06070809020406081A03480061006932
:1042100000460065006E00670052006F00620412E5
:10422000742DF0040D8F310008C50904F202EF244B
:10423000100100C2013E10010800040710034135BF
:10424000000863041003513600085F041261041271
:10425000B50412F70412D30412D90412DF04219C0E
:1042600021A12140F30939367012491C10035C3E2C
:104270000008122C12700812430812B40812040825
:1042800012B80812420812FC0812560810032C003B
:0642900000201A080201E3
:040000050800412D81
:00000001FF
